S014000050726F6A6563745F414D49542E73726563AF
S11300000C942A000C9434000C9434000C943400A6
S11300100C9434000C9434000C9434000C9434008C
S11300200C9434000C9434000C9434000C9434007C
S11300300C9434000C9434000C9434000C9434006C
S11300400C9434000C9434000C9434000C9434005C
S11300500C94340011241FBECFE5D8E0DEBFCDBF21
S11300600E9436000C947F010C940000CF93DF9320
S113007000D0CDB7DEB740E061E080E00E94A90087
S113008040E060EA81E00E94A90041E060E481E090
S11300900E94A90041E061E083E00E94A90040E0E1
S11300A062E083E00E94A90040E064E082E00E94F4
S11300B0A90087E690E00E94710125E040E060E03D
S11300C080E10E945201CE0101960E947901CE0185
S11300D001960E94790140E061E080E00E941201F3
S11300E089818E36D1F441E064E082E00E941201FD
S11300F0BE016E5F7F4F83E00E9461012FEF84E3B6
S11301009CE0215080409040E1F700C0000041E0B5
S113011061E080E00E941201DACF8636C1F640E049
S113012064E082E00E941201BE016E5F7F4F84E0B2
S11301300E9461012FEF84E39CE0215080409040B5
S1130140E1F700C0000041E061E080E00E9412019C
S1130150BECF8130F9F030F08230A1F1833009F460
S113016049C00895413041F018F0423051F00895EB
S11301708AB3682B6ABB08958AB3609568236ABB07
S113018008958AB3962F909589238ABB8BB3682BE5
S11301906BBB0895413041F018F0423051F008959E
S11301A087B3682B67BB089587B36095682367BBE3
S11301B0089587B3962F9095892387BB88B3682BBE
S11301C068BB0895413041F018F0423051F0089571
S11301D084B3682B64BB089584B36095682364BBBF
S11301E0089584B3962F9095892384BB85B3682B97
S11301F065BB0895413041F018F0423051F0089544
S113020081B3682B61BB089581B36095682361BB9A
S1130210089581B3962F9095892381BB82B3682B6F
S113022062BB08958130A1F028F08230F9F0833068
S113023059F10895442319F0413031F008958BB3F6
S1130240609568236BBB08958BB3682B6BBB0895D3
S1130250442319F0413031F0089588B36095682340
S113026068BB089588B3682B68BB0895442319F0CC
S1130270413031F0089585B36095682365BB0895D6
S113028085B3682B65BB0895442319F0413031F0E0
S1130290089582B36095682362BB089582B3682B86
S11302A062BB08951DB820FD02C0709A01C0719808
S11302B06064862B440F440F842B2695282B2DB97C
S11302C008958FB9779909C082E395E09A95F1F77B
S11302D00000779902C08150C1F78FB1FB01808380
S11302E008951BB828E12AB926E820BD89B990BD34
S11302F008955F9B03C02CB1FC0120830895F894FA
S1050300FFCF29
S9030000FC
