S015000050726F6A6563745F414D4954322E737265637C
S11300000C942A000C9434000C9434000C943400A6
S11300100C9434000C9434000C9434000C9434008C
S11300200C9434000C9434000C9434000C9434007C
S11300300C9434000C9434000C9434000C9434006C
S11300400C9434000C9434000C9434000C9434005C
S11300500C94340011241FBECFE5D8E0DEBFCDBF21
S11300600E9436000C9434010C940000CF93DF936B
S11300701F92CDB7DEB740E060EB81E00E947500CF
S113008041E060E481E00E94750040E068E083E0C4
S11300900E94750040E064E082E00E94750025E063
S11300A040E060E080E00E941E01BE016F5F7F4F70
S11300B083E00E942D018981833051F441E068E09E
S11300C00E94DE0040E064E082E00E94DE00EDCFAA
S11300D0843059F741E064E082E00E94DE0040E0B1
S11300E068E083E00E94DE00E0CF8130F9F030F078
S11300F08230A1F1833009F449C00895413041F0C0
S113010018F0423051F008958AB3682B6ABB089501
S11301108AB3609568236ABB08958AB3962F909535
S113012089238ABB8BB3682B6BBB0895413041F0A4
S113013018F0423051F0089587B3682B67BB0895D7
S113014087B36095682367BB089587B3962F90950E
S1130150892387BB88B3682B68BB0895413041F07D
S113016018F0423051F0089584B3682B64BB0895AD
S113017084B36095682364BB089584B3962F9095E7
S1130180892384BB85B3682B65BB0895413041F056
S113019018F0423051F0089581B3682B61BB089583
S11301A081B36095682361BB089581B3962F9095C0
S11301B0892381BB82B3682B62BB08958130A1F08F
S11301C028F08230F9F0833059F10895442319F06E
S11301D0413031F008958BB3609568236BBB08956B
S11301E08BB3682B6BBB0895442319F0413031F075
S11301F0089588B36095682368BB089588B3682B15
S113020068BB0895442319F0413031F0089585B353
S11302106095682365BB089585B3682B65BB089515
S1130220442319F0413031F0089582B36095682376
S113023062BB089582B3682B62BB08951DB820FD8C
S113024002C0709A01C071986064862B440F440FF9
S1130250842B2695282B2DB90895779B04C09FB134
S10F0260FB0190838FB90895F894FFCF40
S9030000FC
